:100000000C94F4050C940B150C9432150C941C06EE
:100010000C941C060C941C060C941C060C941C06D8
:100020000C941C060C941C060C941C060C941C06C8
:100030000C941C060C941C060C941C060C941C06B8
:100040000C9459150C941C060C941C060C941C065C
:100050000C941C060C941C060C941C060C941C0698
:100060000C94E5130C941C060C941C060C941C06B2
:100070000C941C060C941C060C941C060C941C0678
:100080000C941C060C941C060C941C060C941C0668
:100090000C941C060C941C060C941C060C941C0658
:1000A0000C941C060C941C060C941C060C941C0648
:1000B0000C941C06DB40A4A62EAF2000A1C8D300E0
:1000C000408DAED580A80000600000000000000058
:1000D00000000000000000E0000000000000000040
:1000E000000000000001E00000000000000000002F
:1000F0000000000001F0000000000000000000000F
:1001000000000003F00000000000000000000000FC
:10011000000007F0000000000000000000000000E8
:100120000007F800000000000000000000000000D0
:100130000FF800000003C0007E000001E0007F0F08
:10014000F800000003C000FE000001E000FFEFF82F
:1001500000000003C000FE000001E000FFFFF80007
:10016000000003C000F00000000F007FFE7FC00011
:100170000003C000F00000000F003FFE7FF83FF1D9
:10018000FBCFFCFEF3BC3DEFE01FFE7FFF7FFBFFDC
:10019000DFFEFEFFBC3DEFE01FC6FFFF7FFBFFDF82
:1001A000FEFEFFBC3DEFE00FE3C7FE787BC3DE1E23
:1001B000F0FFBC3DEF0007FF87FC787BC3DE1EF03D
:1001C000F83C3DEF0001FFFFF0007BC3C01EF0F0E4
:1001D0003C3DEF0001F37FE03FFBC3CFFEF0F03C7E
:1001E0003DEF0003E33F807FFBC3DFFEF0F03C3DCB
:1001F000EF0007E73C00787BC3DE1EF0F03C3DEFEC
:100200000007FFBE00787BC3DE1EF0F03C3DEF0030
:1002100007FFFE00787BC3DE1EF0F03C3DEF000FD1
:10022000FFFE007FFBFFDFFEF0F03FFDEFE00FFF82
:10023000FF007FFBFFDFFEF0F03FFDEFE00FF9FF77
:10024000003E79F9CF9EF0F01F3DE7E01FF1FF007F
:1002500000000000000000000000001F80FF007F81
:10026000FFFFFFFFFFFFFFFFFFE01C007F007FFF9E
:10027000FFFFFEB46D888D18E000001F007FFFFFB8
:10028000FFFE95AD7DB577E000000F007FFFFFFF1B
:10029000FEA5AD9D8D19E0000006007FFFFFFFFE6B
:1002A000B5ADEDB57EE0000000000001800000006B
:1002B00000000000000003800000000000000000BB
:1002C0000007C000000000000000000007C00000A0
:1002D000000000000000000FC0000000000000004F
:1002E00000001FE00000000000000000001FE00010
:1002F00000000000000000003FE0000000000000DF
:100300000000003FF00000000000000000007FF04F
:10031000000000000000001FF87FF0000000000057
:1003200000003FFE7FF0000000000000003FFF7F64
:10033000F0000000000000001FFFFBE000000000D4
:100340000000000FFFF9FFC00000000000000FFFD9
:10035000F9FFF800000000000007FFF1FFFF0000B8
:100360000000000003FC73FFFF800000000000019C
:10037000FE3FFFFF80000000000000FF1E0FFF0097
:100380000000000000007FFE1FFC000000000000D5
:10039000003FFFFFF8000000000000000FDFFFE05B
:1003A000000000000000001F19FFC0000000000056
:1003B00000003F3CFF00000000000000007E7CF8D1
:1003C00000000000000000007FFE7C000000000034
:1003D000000000FFFFFC0000000000000000FFFF25
:1003E000FE0000000000000000FFFFFE0000000013
:1003F00000000001FFEFFE0000000000000001FF10
:10040000CFFE0000000000000003FF07FE00000018
:100410000000000003FC07FE0000000000000003D5
:10042000F003FE00000000000000018000FE00005C
:1004300000000000000000007E000000000000003E
:100440000000003E000000000000000000000C0062
:100450000000000000078000FC000003C000000056
:10046000078001FC000003C0000000078001FC00C1
:100470000003C0000000078001E00000001E000033
:1004800000078001E00000001E007FE3F79FF9FDF8
:10049000E7787BDFC0FFF7FFBFFDFDFF787BDFC0A4
:1004A000FFF7FFBFFDFDFF787BDFC0F0F787BC3DA6
:1004B000E1FF787BDE00F0F787BC3DE1F0787BDE82
:1004C0000000F787803DE1E0787BDE007FF7879FC3
:1004D000FDE1E0787BDE00FFF787BFFDE1E0787BA0
:1004E000DE00F0F787BC3DE1E0787BDE00F0F787C7
:1004F000BC3DE1E0787BDE00F0F787BC3DE1E078D1
:100500007BDE00FFF7FFBFFDE1E07FFBDFC0FFF711
:10051000FFBFFDE1E07FFBDFC07CF3F39F3DE1E047
:100520003E7BCFC00000000000000000000000FF84
:10053000FFFFFFFFFFFFFFFFFFC0FFFFFFFFFD68A3
:10054000DB111A31C0FFFFFFFFFD2B5AFB6AEFC022
:10055000FFFFFFFFFD4B5B3B1A33C0FFFFFFFFFDBB
:100560006B5BDB6AFDC02200FF2100FCFF00020084
:100570000000000000000000000000FFFF800300FA
:10058000000078E0010000000000801F00C00300B0
:1005900000007CE0010000000000800F00C00300AC
:1005A00000003C00000000000000800F00F01F0071
:1005B00000003E00003C00040000803F00FF0FFCF4
:1005C0000FF83FF000FFE08F0F0000FEF0EF01FE9C
:1005D00007FC3FF0C0FFFFFF1F0000FCFFF1018F91
:1005E000073E1F70E0E3FFFF1F0000F81FF0808749
:1005F000071E1F78E0E3071F0F0000E00FF0808761
:10060000070F1F78F0E1830F0F0000801FF080C3F9
:10061000030F1F38F0E1838F0F0000001F78C0C365
:10062000030F0F3CF0F0C1870F0000001E78C0C31D
:10063000838F0F3FF0F0C187070E00001F78F8E3AB
:10064000F38FEF3FFCF9C087FF0FE0FF0FF8FFFFCC
:10065000FFFFFFFFFF7FC0C3FF01F0FF07F083FF35
:1006600007FF1FFCE13FE0831F000A0D0E09000396
:100670000200000405080000000000000000000067
:10068000000000000000000000250028002B002EC4
:100690000000000000240027002A002D00040404AC
:1006A000040404040402020202020203030303031B
:1006B000030202030505050501020408102040801D
:1006C00001020408102001020408102040804001AB
:1006D000020408000103070F1F3F7F0080C0E0F005
:1006E000F8FCFE00000000003E5B4F5B3E3E6B4F9F
:1006F0006B3E1C3E7C3E1C183C7E3C181C577D57B4
:100700001C1C5E7F5E1C00183C1800FFE7C3E7FF5F
:100710000018241800FFE7DBE7FF30483A060E26F2
:1007200029792926407F050507407F05253F5A3C4A
:10073000E73C5A7F3E1C1C08081C1C3E7F14227F8D
:1007400022145F5F005F5F06097F017F0066899565
:100750006A606060606094A2FFA29408047E04084E
:1007600010207E201008082A1C08081C2A08081ED1
:10077000101010100C1E0C1E0C30383E3830060EB7
:100780003E0E06000000000000005F0000000700B1
:100790000700147F147F14242A7F2A12231308646D
:1007A0006236495620500008070300001C22410011
:1007B0000041221C002A1C7F1C2A08083E08080051
:1007C00080703000080808080800006060002010F1
:1007D0000804023E5149453E00427F4000724949AB
:1007E00049462141494D331814127F10274545458C
:1007F000393C4A49493141211109073649494936AD
:10080000464949291E000014000000403400000041
:100810000814224114141414140041221408020173
:100820005909063E415D594E7C1211127C7F49499F
:1008300049363E414141227F4141413E7F4949493C
:10084000417F090909013E414151737F0808087F32
:1008500000417F41002040413F017F081422417F39
:10086000404040407F021C027F7F0408107F3E41D1
:1008700041413E7F090909063E4151215E7F091928
:100880002946264949493203017F01033F40404040
:100890003F1F2040201F3F4038403F63140814632F
:1008A00003047804036159494D43007F41414102EB
:1008B00004081020004141417F040201020440402D
:1008C000404040000307080020545478407F2844EB
:1008D00044383844444428384444287F38545454D5
:1008E0001800087E090218A4A49C787F08040478E4
:1008F00000447D40002040403D007F10284400001F
:10090000417F40007C047804787C080404783844F3
:10091000444438FC1824241818242418FC7C0804A7
:100920000408485454542404043F44243C404020C8
:100930007C1C2040201C3C4030403C442810284473
:100940004C9090907C4464544C4400083641000024
:1009500000770000004136080002010204023C2634
:1009600023263C1EA1A161123A4040207A385454FB
:10097000555921555579412254547842215554787E
:100980004020545579400C1E527212395555555914
:10099000395454545939555454580000457C410039
:1009A00002457D420001457C407D1211127DF028F8
:1009B0002528F07C545545002054547C547C0A0969
:1009C0007F4932494949323A4444443A324A4848D4
:1009D000303A4141217A3A42402078009DA0A07DE2
:1009E0003D4242423D3D4040403D3C24FF2424489E
:1009F0007E4943662B2FFC2F2BFF0929F620C08848
:100A00007E090320545479410000447D4130484818
:100A10004A32384040227A007A0A0A727D0D193132
:100A20007D2629292F28262929292630484D40208E
:100A3000380808080808080808382F10C8ACBA2F6A
:100A4000102834FA00007B000008142A1422221413
:100A50002A14085500550055AA55AA55AAFF55FF56
:100A600055FF000000FF00101010FF00141414FFC9
:100A7000001010FF00FF1010F010F0141414FC0010
:100A80001414F700FF0000FF00FF1414F404FC141A
:100A90001417101F10101F101F1414141F00101013
:100AA00010F0000000001F101010101F1010101088
:100AB000F010000000FF101010101010101010FFA8
:100AC00010000000FF140000FF00FF00001F1017BF
:100AD0000000FC04F414141710171414F404F400A8
:100AE00000FF00F714141414141414F700F714146E
:100AF00014171410101F101F141414F4141010F0F5
:100B000010F000001F101F0000001F14000000FC68
:100B1000140000F010F01010FF10FF141414FF1454
:100B20001010101F00000000F010FFFFFFFFFFF08B
:100B3000F0F0F0F0FFFFFF0000000000FFFF0F0FDC
:100B40000F0F0F3844443844FC4A4A4A347E0202AC
:100B50000606027E027E0263554941633844443CE6
:100B600004407E201E2006027E020299A5E7A59978
:100B70001C2A492A1C4C7201724C304A4D4D3030AF
:100B800048784830BC625A463D3E494949007E019A
:100B900001017E2A2A2A2A2A44445F444440514AB9
:100BA000444040444A51400000FF0103E080FF0000
:100BB0000008086B6B083612362436060F090F063C
:100BC000000018180000001010003040FF01010064
:100BD0001F01011E00191D1712003C3C3C3C000087
:100BE00000000000891B2B1C11241FBECFEFD8E092
:100BF000DEBFCDBF11E0A0E0B1E0E2E5FFE302C05F
:100C000005900D92A435B107D9F722E0A4E5B1E033
:100C100001C01D92AB34B207E1F715E0C3EFD5E098
:100C200004C02197FE010E942B1EC23FD107C9F7C5
:100C30000E94A1150C948F1F0C9400000F931F931A
:100C40002FB7F89480913A0290913B02A0913C0218
:100C5000B0913D022FBF40914302509144026091F8
:100C60004502709146028C019D01041B150B260B59
:100C7000370B0E3211052105310598F000933F0224
:100C8000109340022093410230934202809343022A
:100C900090934402A0934502B093460281E0809372
:100CA0003E021F910F91089580E090E00895FC01AD
:100CB000CB01BA0102A0F3A1E02D0994CF93DF93F9
:100CC0000F92CDB7DEB7FC01698387898115F1F0FA
:100CD0002689848595852817190654F081E090E0CF
:100CE0009383828380E090E00F90DF91CF9108950D
:100CF00089819589A389B489A90FB11D8C938589B0
:100D00008F5F858B868B81E090E0EECF00A4F1A50C
:100D1000E02D61E0CE0101960995F5CFCF92DF92EB
:100D2000EF92FF920F931F93CF93DF93EC01CB01D0
:100D30007A012F892115E1F08B016B01C40ED51EBC
:100D40000C151D0551F4C701DF91CF911F910F9133
:100D5000FF90EF90DF90CF900895F80161918F019F
:100D6000E881F9810190F081E02DCE010995E8CF6D
:100D7000E8A5F9A5642F0995E6CFFC018189908942
:100D8000891B990B0895FC01908981892FEF3FEF12
:100D9000981740F4A685B785A90FB11D2C9130E0B6
:100DA0009F5F908BC9010895FC0180899189891703
:100DB00040F40684F785E02DE80FF11D808190E076
:100DC00008958FEF9FEF08950895AC01CB01209116
:100DD000240230912502232B11F130911A02209127
:100DE0001B023217E0F020E0622F70E0281719068E
:100DF0004CF010921A0280931B02E0912402F091B1
:100E000025020994FA01E60FF71F3081E0911802DC
:100E1000F0911902E60FF71F30832F5FE5CF089599
:100E2000E0912202F0912302309729F010921F02E4
:100E30001092200209940895880F8093BA000895B3
:100E40009B01AC0160E074E284EF90E00E94091E17
:100E500020513109410951095695479537952795F4
:100E60002093B8000895982F842F4132D8F53091FF
:100E700009023111FCCF31E03093090220930802BE
:100E80002FEF2093060260930402709305021092E4
:100E90000302280F209302023093010220910102E5
:100EA000990F922B90930102909107029130C1F417
:100EB00010920702909101029093BB009091BC00A8
:100EC00093FDF8CF95EC9093BC009091090291307E
:100ED000E1F390910302981730F480910302089592
:100EE00095EEF1CF80E008950F93982F81E0413285
:100EF00008F040C0809109028111FCCF32E03093AC
:100F00000902009308023FEF309306026093040247
:100F100070930502109203024093020210920102A4
:100F200030910102990F932B909301029091070247
:100F3000913011F510920702909101029093BB003D
:100F40009091BC0093FDF8CF95EC9093BC002115D7
:100F500021F0909109029230E1F3909106029F3FB7
:100F600049F080910602803249F080910602803378
:100F700039F483E00F91089595EEE7CF82E0FACF40
:100F800084E0F8CF20910002260F3327331F21324F
:100F90003105ECF420910902FC0180E090E024305E
:100FA00069F082E00895A09100022191AC014052C5
:100FB0005E4FA40FB52FB11D2C930196861798F3A1
:100FC00080910002680F6093000280E0089581E044
:100FD0000895811521F085EC8093BC00089585E883
:100FE000FBCF85ED8093BC008091BC0084FDFCCFDD
:100FF00010920902089585EC8093BC0010920902BA
:10100000089508952F923F924F925F926F927F9230
:101010008F929F92AF92BF92CF92DF92EF92FF9208
:101020000F931F93CF93DF9300D000D000D0CDB7A4
:10103000DEB71C01CB015A012D833E836801EB8290
:10104000FC827801E41AF50AF7FE03C07A01E01A7F
:10105000F10A8D809E80881A990A97FE05C04C017E
:101060002D813E81821A930A8E149F045CF03C2DE0
:101070002D2DCD80DE803D832E833A2D2B2D5C01DE
:10108000832F922FCA14DB045CF03D812E819E8356
:101090008D83832F922F3C2D2D2D6501A32EB22EF3
:1010A00035016C187D082C01AD81BE814A1A5B0A9E
:1010B00057FE03C02D01481A590A830177FE02C06A
:1010C0000F5F1F4F159507952D813E812817390712
:1010D0000CF445C08FEF9FEF9A838983AC14BD0455
:1010E000CCF40F900F900F900F900F900F90DF9116
:1010F000CF911F910F91FF90EF90DF90CF90BF9015
:10110000AF909F908F907F906F905F904F903F90A7
:101110002F900895D101ED91FC910484F585E02D87
:101120002B813C81A6016D817E818E149F041CF071
:101130004D815E81B601C10109950419150917FF9A
:101140000AC02D813E8189819A81280F391F3E83F3
:101150002D83060D171D9FEFC91AD90ABFCFA1E035
:10116000B0E0BA83A983BACFDC01ED91FC91008491
:10117000F185E02D09940F931F93DC01ED91FC9113
:10118000048CF58DE02D09951F910F9108950F9313
:101190001F93DC01ED91FC91068CF78DE02D0995F4
:1011A0001F910F910895EF92FF920F931F93DC010F
:1011B000ED91FC9100A0F1A1E02D09951F910F91F7
:1011C000FF90EF9008958F929F92AF92BF92CF922F
:1011D000DF92EF92FF920F931F93CF93DF93EC0177
:1011E0004B015A0169017801E881F9810284F38594
:1011F000E02D0995CA0CDB1C860101501109E8811C
:10120000F9810488F589E02D9401A501B401CE018E
:101210000995E881F9810688F789E02DCE01DF91F3
:10122000CF911F910F91FF90EF90DF90CF90BF90E3
:10123000AF909F908F9009948F929F92AF92BF92A0
:10124000CF92DF92EF92FF920F931F93CF93DF9392
:10125000EC015B014A0169017801E881F9810284AE
:10126000F385E02D0995CA0CDB1C9601215031094C
:10127000E881F9810488F589E02D8401A401B50194
:10128000CE010995E881F9810688F789E02DCE0124
:10129000DF91CF911F910F91FF90EF90DF90CF9052
:1012A000BF90AF909F908F9009944F925F926F92F2
:1012B0007F928F929F92AF92BF92CF92DF92EF92E6
:1012C000FF920F931F93CF93DF93EC012B01942E8A
:1012D000852E5901702E612EE881F9810284F385F3
:1012E000E02D09956201A40CB51CE881F981CA14AE
:1012F000DB04ACF00688F789E02DCE01DF91CF91B9
:101300001F910F91FF90EF90DF90CF90BF90AF9023
:101310009F908F907F906F905F904F90099400887E
:10132000F189E02D8701272D362D492D582DB60145
:10133000CE0109958FEFC81AD80AD7CFEF92FF9246
:101340000F931F93DC017B011A960D911C911B9743
:1013500018962D913C911997ED91FC9100A0F1A167
:10136000E02D40E050E060E070E009951F910F91A2
:10137000FF90EF9008956F927F928F929F92AF921D
:10138000BF92CF92DF92EF92FF920F931F93CF9372
:10139000DF935C01EB016A01490138018701DC013F
:1013A000ED91FC916217730719F5641675062CF020
:1013B000962D872D3A01C92ED82EC618D70896012A
:1013C0002F5F3F4F048CF58DE02DA301BE01C501B9
:1013D0000995DF91CF911F910F91FF90EF90DF90D2
:1013E000CF90BF90AF909F908F907F906F90089517
:1013F0004615570591F42617370724F0892D4B0120
:10140000C22FD82FC819D9099E012F5F3F4F068CD4
:10141000F78DE02DA601B401DACF0284F385E02D2B
:101420000995D501ED91FC910488F589E02D8301A2
:101430009401A601BE01C5010995D501ED91FC916C
:101440000688F789E02DC501DF91CF911F910F919B
:10145000FF90EF90DF90CF90BF90AF909F908F90D4
:101460007F906F9009946F927F928F929F92AF922C
:10147000BF92CF92DF92EF92FF920F931F93CF9381
:10148000DF93EC016B015A0139014801E881F981D0
:101490000284F385E02D0995E881F9810288F389BA
:1014A000E02D87019301A501B601CE010995A501A3
:1014B000480D591D41505109E881F9810288F3898D
:1014C000E02D9301B601CE010995E881F9810088EC
:1014D000F189E02D9401A501B601CE010995C60C54
:1014E000D71CB60161507109E881F9810088F18942
:1014F000E02D9401A501CE010995E881F9810688C6
:10150000F789E02DCE01DF91CF911F910F91FF90D0
:10151000EF90DF90CF90BF90AF909F908F907F9093
:101520006F9009942F923F924F925F926F927F92A9
:101530008F929F92AF92BF92CF92DF92EF92FF92E3
:101540000F931F93CF93DF93CDB7DEB76B970FB693
:10155000F894DEBF0FBECDBF8A8F9B8F1B014A015F
:10156000D22E0A831B833701A982AA8DBB8D59967F
:101570002D913C915A972115310509F01CC11896FF
:101580008D919C911997681779070CF0D2C11A9622
:101590008D919C91481759070CF0CBC1EC2DF0E0D0
:1015A000FD83EC839B0146E0C49E200D311D112478
:1015B0003D872C87121613060CF0BBC18A2D90E0D4
:1015C0009F878E87E8E0AE9ED0011124B98BA88B4F
:1015D000CD01880D991D181619060CF0AAC1EA8DC7
:1015E000FB8D808D811104C0F0EBDF1608F0D394E1
:1015F000AA8DBB8DED91FC9111970284F385E02DAE
:10160000CD010995B5E0DB9EC0011124FC01ED512F
:10161000F94FFB87EA8751012C2D30E03B8B2A8B59
:10162000C1010596998F888F3F822E82B981AB2F99
:10163000B0E0BF8BAE8BF4013896FD8BEC8BEA8566
:10164000FB85D490240199868886AA8DBB8DED9167
:10165000FC91D0FE88C0B1E0CB1274C0298121304A
:1016600009F070C00484F585E02D2A813B81A20138
:10167000B5018A8D9B8D0995D694BFEF4B1A5B0AF5
:10168000E885F9852E893F89E20FF31FF987E887FE
:101690008C899D8984159505C1F6AA85BB8511960F
:1016A000BB87AA87BFEFAB1ABB0AEE81FF812A89ED
:1016B0003B89E20FF31FFF83EE83888D998DA81677
:1016C000B90609F0BCCFAA81BB81A615B705C1F048
:1016D000AA8DBB8DED91FC91B1E0CB125AC029814E
:1016E000213009F056C0B1016B5F7F4F0088F1894E
:1016F000E02D830128E030E0A4018A8D9B8D0995BF
:10170000AA8DBB8DED91FC9111970688F789E02D8C
:10171000CD016B960FB6F894DEBF0FBECDBFDF9143
:10172000CF911F910F91FF90EF90DF90CF90BF90DE
:10173000AF909F908F907F906F905F904F903F9071
:101740002F9009940684F785E02DEA80FB800E85B2
:101750001F852C813D81488559856E817F818A8DC9
:101760009B8D099589CF8A819B818615970509F400
:1017700083CF91E0C91208C0A981A13029F4048463
:10178000F585E02D930173CF0684F785E02D730175
:10179000DECF6C857D858C819D81681B790B0684ED
:1017A000F785E02D7301088919899C01A4018A8DB0
:1017B0009B8D0995A5CFF901349694913297459167
:1017C0005591D91AB7E0DB9E400D511D1124F90146
:1017D000259135913F872E87FA0145905590FA0162
:1017E0003296B49031963491388B3296649031961B
:1017F000149189818C29823008F445C0862D062CED
:10180000000C990B9F838E83A12F012E000CBB0B24
:10181000B987A887AA8DBB8DED91FC9111970284A1
:10182000F385E02DCD0109951C82D12C712CF98115
:10183000EF2FF0E0FB8BEA8B90E0C88EA92E94018D
:10184000210F311D17FD3A953D8B2C8BC101860D63
:10185000911D67FC9A959F8B8E8BE8897E1608F008
:101860004FCF28853985270D311DF981F29FC001A1
:10187000F39F900D11249C01280D391D3B872A8769
:101880008C81612C34C0198618861F821E82C2CFBB
:1018900091E0980F9C878770811108C0C201019662
:1018A000EE85FF85E40DF51DD4902C01D7FE1CC0FC
:1018B000AA8DBB8DED91FC91662D70E0B1E0CB124D
:1018C0001DC029812130D1F48E899F89680F791F2D
:1018D0000484F585E02D2A813B814C895D89470D83
:1018E000511D8A8D9B8D0995DD0C63948C856B143D
:1018F00078F2BC81BB0DBC837394AFCFAE81BF8146
:101900006A0F7B1FC69EC001C79E900D1124BC01AB
:10191000620D731D0684F785E02DEA80FB800A893D
:101920001B89288D3A2D4A855B858A8D9B8D09956B
:10193000DBCF6B960FB6F894DEBF0FBECDBFDF9145
:10194000CF911F910F91FF90EF90DF90CF90BF90BC
:10195000AF909F908F907F906F905F904F903F904F
:101960002F9008958F929F92AF92CF92EF92FF9215
:101970000F931F93CF93DF93EC01262F898D9A8DC0
:10198000009709F051C06A30D1F41D861C862D895C
:1019900088E0289F900111248E859F85820F931FD8
:1019A0009F878E8781E090E0DF91CF911F910F910B
:1019B000FF90EF90CF90AF909F908F9008956D30F3
:1019C00089F3CC88AD888F898115C1F08C859D8580
:1019D00036E0C39E800D911D112448855985481716
:1019E000590764F44E855F851D861C8638E0A39EEA
:1019F000C0011124840F951F9F878E87EA88FB887A
:101A0000088919894E855F856C857D85CE010E9488
:101A1000920A2C898C859D8536E0239F800D911D2F
:101A200011249D878C87BECF6A3069F41D861C8681
:101A3000FC013896E4912D898E859F852E9F800D1F
:101A4000911D1124ADCF6D3009F4ACCFFC0134965B
:101A50003491631708F4A6CF3296E491E61708F4A0
:101A6000A1CFFC01329685909590E62FE31B37E0DD
:101A7000E39F800C911C1124F4013296349131962D
:101A8000E4913115A9F1E11599F1CC88F40135966D
:101A9000E491AD884F89411501F10E2E000CFF0B2A
:101AA000E30FF11DCE9EA001CF9E500D11246C8539
:101AB0007D85460F571F68857985641775076CF417
:101AC0004E855F851D861C86FC013896E491AE9E8E
:101AD000400D511D11245F874E87EA88FB880889D5
:101AE00019894E855F856C857D85CE010E94920A9D
:101AF000F4013496E4912C898C859D852E9F800D70
:101B0000911D11248ECFFC01862F8370868B9481CA
:101B100085813681278160FD03C0AC01C9019A012E
:101B20003087218792878387089508958CBD9DBD56
:101B300008950895FC01DB01CA01A90177FD60C089
:101B400020853185621773070CF05AC097FD58C085
:101B500022853385821793070CF052C026892230E4
:101B6000A9F0233001F1213039F424813581281B7B
:101B7000390BCB01D901119741305105E1F04230C9
:101B8000510509F467C0452BE1F1089524813581A1
:101B9000261B370BD901119726813781281B390B5A
:101BA000C9010197E9CF26813781261B370BDC015C
:101BB000C9010197E1CF9C0197FF02C0295F3F4F08
:101BC00063E0359527956A95E1F764817581269FD5
:101BD000A001279F500D369F500D11244A0F5B1F07
:101BE000078CF0A1E02DE40FF51F8770992721E005
:101BF00030E001C0220F8A95EAF78081822B808332
:101C000008959C0197FF02C0295F3F4F53E035952F
:101C100027955A95E1F764817581269FA001279F3A
:101C2000500D369F500D11244A0F5B1F078CF0A1F9
:101C3000E02DE40FF51F8770992721E030E0A9011E
:101C400002C0440F551F8A95E2F7CA018095908122
:101C50008923D5CF9C0197FF02C0295F3F4F43E006
:101C6000359527954A95E1F764817581269FA001F6
:101C7000279F500D369F500D11244A0F5B1F078C74
:101C8000F0A1E02DE40FF51F8770992721E030E0E7
:101C900001C0220F8A95EAF780818227B0CF0F9387
:101CA0001F93CF93DF93DC01FB01BA01C901A801A7
:101CB00077FD42C016962D913C91179762177307D6
:101CC000DCF5F7FF04C08E0F9F1FE0E0F0E01496F4
:101CD000CD91DC9115979F01280F391FC217D307AB
:101CE0001CF4CE018E1B9F0B181619062CF58B01C8
:101CF00023E0159507952A95E1F70C9F90010D9F1C
:101D0000300D1C9F300D11242E0F3F1F5F96ED915B
:101D1000FC91E20FF31F6770772721E030E001C0EC
:101D2000220F6A95EAF7622F41305105A9F042303F
:101D3000510539F0452BE1F0DF91CF911F910F91C3
:101D400008958E0F9F1FE817F907B1F3DF012D915A
:101D500026272083FD01F7CF9F01280F391FE217A7
:101D6000F30751F3DF019D91962B9083FD01F7CF8F
:101D700020958E0F9F1FE817F907F1F2DF013D91C3
:101D800032233083FD01F7CF0F931F93CF93DF935F
:101D9000EC01FB01BA01A90198010C811D81E0173A
:101DA000F1070CF06DC077FF04C0460F571F60E0CD
:101DB00070E08E819F81DB01A40FB51F8A179B07FE
:101DC0001CF4AC01461B570B141615060CF058C03A
:101DD000842F962F969596959695909FD001919FDA
:101DE000B00D1124EA0FFB1FAF8DB8A1AE0FBF1FBE
:101DF0006770611521F198E0961B692F092F10E09B
:101E0000F801E552F94FE491491750F4041B110908
:101E10004FEF50E002C0559547950A95E2F7E4234D
:101E20002130310591F122303105B9F1211531050B
:101E300081F1861728F14C815D81A40FB51FE82F31
:101E4000E61BE83078F02230310551F58E2F9C9159
:101E500090959C934C815D81A40FB51F885088306C
:101E6000B0F7E770E11561F0F0E0ED52F94FE49161
:101E70002130310529F12230310551F1232B21F197
:101E8000DF91CF911F910F9108959C919E2B9C9370
:101E9000D0CFE0959C919E23FACF9C919E27F7CFBF
:101EA00081E02115310509F480E081959E2F8C9306
:101EB0004C815D81A40FB51F98509830C0F7D1CFE9
:101EC0008C918E2B8C93DCCFE0958C918E23FACF66
:101ED0008C918E27F7CF0F931F93FC01CB01BA0192
:101EE0004689423091F0433029F14130D9F44481A0
:101EF0005581461B570BBA01621B730BAC01CF0116
:101F00000E944F0E1F910F91089544815581481BE7
:101F1000590BCA01019746815781461B570BBA01DD
:101F2000621B730B97FDEECFAB01BC01CF010E948A
:101F3000C40EE8CF46815781481B590BCA0101974F
:101F4000DDCF0F931F93FC01CA0146894230A1F0F7
:101F5000433021F14130E9F444815581481B590B4C
:101F6000CA01019797FD05C0AB01BC01CF010E94DA
:101F7000C40E1F910F91089546815781481B590B3C
:101F8000CA01019744815581461B570BBA01621B58
:101F9000730BAC01CF010E944F0EEBCF46815781EE
:101FA000461B570BBA01621B730BDCCF08953FB77A
:101FB000F8948091B5019091B601A091B701B091CC
:101FC000B80126B5A89B05C02F3F19F00196A11DA9
:101FD000B11D3FBFBA2FA92F982F8827BC01CD0173
:101FE000620F711D811D911D42E0660F771F881FD2
:101FF000991F4A95D1F708954F925F926F927F9201
:102000008F929F92AF92BF92CF92DF92EF92FF9208
:102010000F931F93CF93DF938B01D82FC92F0E946B
:10202000D70F262F822E972E5C016801ED2EFC2EF5
:1020300005C0C114D104E104F10409F10E94D70FD5
:102040002B013C01481859086A087B088601DE2DDF
:10205000CF2D31E0C31AD108E108F108282D792DE0
:10206000C50138EE830E33E0931EA11CB11C38EE7F
:10207000431633E0530661047104D8F6D3CFDF91E1
:10208000CF911F910F91FF90EF90DF90CF90BF9075
:10209000AF909F908F907F906F905F904F9008953A
:1020A000CF93DF9390E0FC01E854F94F24918356DD
:1020B000994FFC0184918115D1F090E0880F991F10
:1020C000FC01EF56F94FA591B591FC01EB57F94F83
:1020D000C591D5919FB7623069F4F8943C91822FF5
:1020E000809583238C938881822B88839FBFDF9187
:1020F000CF910895F8948C91822B8C93F7CF282F51
:1021000030E0F901E659F94F9491F901E854F94F9B
:1021100084912356394FF9012491211509F1911524
:1021200071F092509D3058F4E92FF0E0E456F04EF3
:102130000C942B1E909180009F7790938000E22F4B
:10214000F0E0EE0FFF1FEB57F94FA591B5912FB7B8
:10215000F8949C9161112EC0809589238C932FBF98
:102160000895909180009F7DE8CF9091B0009F7777
:102170009093B000E4CF9091B0009F7DF9CF909103
:1021800090009F7790939000DACF909190009F7D80
:10219000F9CF9091A0009F779093A000D0CF90911D
:1021A000A0009F7DF9CF94B59F7794BDC8CF94B51B
:1021B0009F7DFBCF892BD2CF1092090281E08093C3
:1021C00008021092070261E082E10E947F1061E044
:1021D00083E10E947F10E9EBF0E080818E7F8083B5
:1021E00080818D7F808388E48093B80085E480932C
:1021F000BC000895ECEBF0E080818A7B808360E096
:1022000082E10E947F1060E083E10C947F10CF9206
:10221000DF92EF92FF920F931F93CF93DF937C0196
:102220006A0100E010E00C151D0551F4C801DF91B2
:10223000CF911F910F91FF90EF90DF90CF90089575
:10224000EB01D701ED91FC910190F081E02D6991B6
:10225000C7010995892B51F30F5F1F4FBE01E3CFD3
:102260003F924F925F926F927F928F929F92AF9226
:10227000BF92CF92DF92EF92FF920F931F93CF9373
:10228000DF936C01EB015A017901290187E0480EC7
:10229000511C93E0559447949A95E1F73801660EE6
:1022A000771E812C912C312C00E010E0C801877042
:1022B0009927330C892B59F4F80183E0F595E795BC
:1022C0008A95E1F7E80DF91DEA0DFB1D349037FE04
:1022D0000AC021E030E0AE01B8016C0D7D1D8BE538
:1022E00091E00E94B4080F5F1F4FE016F106F1F66F
:1022F0002196840C951CC615D705B1F6DF91CF91B8
:102300001F910F91FF90EF90DF90CF90BF90AF9013
:102310009F908F907F906F905F904F903F90089527
:102320008EBD00000DB407FEFDCF8EB508950F934E
:10233000CF93DF93EC016B897C89EEA1FFA101E0D3
:1023400021E04E898A8909951D8A1E8A1F8ADF919C
:10235000CF910F9108951F93CF93DF93EC01162F28
:10236000AD8DBE8D109741F189A191E057969C9358
:10237000579752968C93529755961C92559756960E
:102380001C925697ED91FC9111970190F081E02DF0
:1023900060E0CD0109958D8D9E8DDC01ED91FC9164
:1023A0000190F081E02D612F09958D8D9E8DDF913B
:1023B000CF911F910C949711EDA5FEA590818BA94B
:1023C0008095892380838B8D9C8D892B31F0862F7E
:1023D000DF91CF911F910C94901128E030E080E8BC
:1023E000E9A5FAA599A9412F48234115C1F04081DB
:1023F000942B9083EBA5FCA590814AA9942B908304
:10240000EBA5FCA540819AA990959423908386958D
:102410002150304029F7DF91CF911F9108954081DD
:1024200090959423E6CF1F93CF93DF93EC01162F63
:102430008D8D9E8D0097C1F04DA95EA96FA978ADD5
:102440000E94570666EA610FCE010E94AB118D8D86
:102450009E8D0097C9F049AD5AAD6BAD7CADDF9153
:10246000CF911F910C9457068B8D9C8D892B21F059
:102470008EAD9FAD0E94960DEFA5F8A990818CA915
:10248000809589238083DECFEFA5F8A980819CA960
:10249000892B8083DF91CF911F910895EF92FF9256
:1024A0000F931F93CF93DF93F82ED92FC62FA091B0
:1024B0007801B0917901109709F464C080917C0192
:1024C00091E057969C93579752968C9352975596B6
:1024D0001C92559756961C925697ED91FC91119728
:1024E0000190F081E02D60E0CD0109950F2D1D2FA9
:1024F000EE24E394F12CD1E0C150809178019091C9
:102500007901CF3F41F4DF91CF911F910F91FF905F
:10251000EF900C94971120E2E216F10401F50E946D
:102520009711A0917801B091790180917C01579623
:10253000DC93579752968C93529755961C925597C9
:1025400056961C925697ED91FC9111970190F0814F
:10255000E02D60E0CD010995EE24E394F12C80910B
:10256000780190917901F8016491DC01ED91FC9181
:102570000190F081E02D0995BFEFEB1AFB0A0F5F88
:102580001F4FBACFE0918801F0918901808120919D
:102590008E012095282320830F2D192FC15038F448
:1025A000DF91CF911F910F91FF90EF900895F80167
:1025B00084912091760130917701232B29F00E949C
:1025C00090110F5F1F4FEACF28E030E040E8E09124
:1025D0008401F091850190918C01582F542351155D
:1025E000D9F05081952B9083E0918601F09187017D
:1025F000908150918D01952B9083E0918601F0910F
:102600008701508190918D019095952390834695F7
:1026100021503040E1F6D5CF508190959523E3CFFE
:102620002091610130916201C901079697FD0796DB
:1026300023E0959587952A95E1F720915F013091E8
:102640006001829FA001839F500D929F500D112425
:1026500060E070E080917A0190917B010C94721F90
:10266000BC01009761F0FC0101900020E9F731976F
:10267000AF01481B590B8BE591E00C9407110895AD
:102680004F925F926F927F928F929F92AF92BF9282
:10269000CF92DF92EF92FF920F931F93CF93DF932E
:1026A000CDB7DEB7A1970FB6F894DEBF0FBECDBF92
:1026B000762E672E582E492E19A2423008F44AE091
:1026C0008E010F5D1F4FC42ED12CE12CF12C672DF4
:1026D000762D852D942DA70196010E94091E872C29
:1026E000962CA52CB42C722E632E542E452E6A30B7
:1026F0001CF5605DF80162938F018C149D04AE049B
:10270000BF0428F7CF010E943013A1960FB6F894AA
:10271000DEBF0FBECDBFDF91CF911F910F91FF9014
:10272000EF90DF90CF90BF90AF909F908F907F9071
:102730006F905F904F900895695CDCCFEF92FF92AD
:102740000F931F93CF93DF937C01EB0100E010E028
:10275000C701800F911F0E94791F888321960F5F08
:102760001F4F04301105A1F7DF91CF911F910F91F9
:10277000FF90EF900895BF92CF92DF92EF92FF9279
:102780000F931F93CF93DF937C01EB0100E010E0E8
:10279000B88021966701C00ED11EC6010E94791F24
:1027A000B81621F06B2DC6010E94811F0F5F1F4FCD
:1027B0000430110569F7DF91CF911F910F91FF90C0
:1027C000EF90DF90CF90BF9008951F920F920FB6B9
:1027D0000F9211242F933F934F935F936F937F93A7
:1027E0008F939F93AF93BF93EF93FF939091B90013
:1027F000892F887F803509F4C9C008F047C080332D
:1028000009F4BFC0B0F5883101F1D0F4883009F483
:10281000B0C0803109F4ADC0811509F4F9C0FF9151
:10282000EF91BF91AF919F918F917F916F915F9148
:102830004F913F912F910F900FBE0F901F901895C1
:10284000803209F49EC0883251F790910302809142
:1028500002029817C0F5E0910402F0910502809100
:10286000030291E0980F90930302E80FF11D80811D
:1028700082C0803409F499C0883409F484C0883354
:1028800071F6809306020E94FB07C9CF803A09F4D3
:10289000A6C0D8F5803809F490C070F5803631F1C3
:1028A000F8F4883509F0BBCFE0910402F0910502FD
:1028B0008091030291E0980F909303029091BB00E6
:1028C000E80FF11D90838091080281115CC081E0C6
:1028D0008093070284EA8093BC00109209029FCF84
:1028E000803721F0987E983609F099CF83E0809365
:1028F00009021092DF0141C0803909F45EC0987E60
:10290000983809F08CCF85E839C0883BD9F058F564
:10291000883A19F0803B09F082CF84E08093090265
:102920001092BC0110920002E091BA01F091BB013B
:10293000099580910002811105C081E08093000219
:102940001092E001E091BC0181E08E0F8093BC0108
:10295000F0E0E052FE4F80818093BB009091BC017B
:102960008091000226C0907F903C09F058CF85EC02
:10297000B2CF809101028093BB0085EC8093BC00B4
:102980004ECF809306020E94F10749CFE0910402E6
:10299000F09105028091030291E0980F9093030259
:1029A0009091BB00E80FF11D9083909103028091FC
:1029B0000202981708F0A7CFE0CF8091DF018032A4
:1029C00008F0A1CFE091DF0181E08E0F8093DF015D
:1029D0008091BB00F0E0E154FE4F8083CECF0E9497
:1029E000FB078091DF01803230F4E091DF01F0E0FD
:1029F000E154FE4F10826091DF0170E0E091BD0173
:102A0000F091BE018FEB91E009951092DF0107CFA5
:102A100010920602B8CF1F920F920FB60F92112498
:102A20002F933F934F935F936F937F938F939F93D6
:102A3000AF93BF93EF93FF93E0910001F0910101F9
:102A40000995FF91EF91BF91AF919F918F917F91E8
:102A50006F915F914F913F912F910F900FBE0F900B
:102A60001F9018951F920F920FB60F9211242F935B
:102A70003F934F935F936F937F938F939F93AF9306
:102A8000BF93EF93FF93E0910201F0910301099549
:102A9000FF91EF91BF91AF919F918F917F916F9136
:102AA0005F914F913F912F910F900FBE0F901F900C
:102AB00018951F921FB61F9211242F933F938F9347
:102AC0009F93AF93BF9380913A0290913B02A09164
:102AD0003C02B0913D023091B90123E0230F2D3724
:102AE00060F126E8230F0296A11DB11D2093B901C4
:102AF00080933A0290933B02A0933C02B0933D0234
:102B00008091B5019091B601A091B701B091B80143
:102B10000196A11DB11D8093B5019093B601A093BC
:102B2000B701B093B801BF91AF919F918F913F9141
:102B30002F911F901FBE1F9018950196A11DB11DCA
:102B4000D5CFCDB7DEB728970FB6F894DEBF0FBE4E
:102B5000CDBF789484B5836084BD85B5836085BD21
:102B600080916E00816080936E0082E0809381008E
:102B700080918100816080938100809180008160DC
:102B8000809380008091B10084608093B100809137
:102B9000B00081608093B000809191008360809349
:102BA0009100809190008160809390008091A100BD
:102BB00083608093A1008091A00081608093A00039
:102BC00087E880937A001092C10062E082E10E945F
:102BD000501062E083E10E94501080917A01909140
:102BE0007B01892B11F10E9410132091610130911A
:102BF000620180915F0190916001213231050CF0FA
:102C000005C3B9016052710977FF02C06F5F7F4F42
:102C1000759567958357910997FD019600E210E03D
:102C200023E730E046EC50E004C32091610130918D
:102C30006201C901079697FD0796B3E095958795C0
:102C4000BA95E1F720915F0130916001AC01429F9C
:102C5000C001439F900D529F900D11240E944B1E66
:102C600090937B0180937A01892B09F0BCCF0E945D
:102C7000101362E082E00E94501067EA71E080E089
:102C800090E00E949E1363EA71E084E090E00E946D
:102C90009E132091A7013091A8014091A901509164
:102CA000AA012F3F8FEF38074807580759F41092B1
:102CB000A7011092A8011092A9011092AA0120E088
:102CC00030E0A901C090A301D090A401E090A5013B
:102CD000F090A6019FEFC916D906E906F90659F446
:102CE0001092A3011092A4011092A5011092A601C6
:102CF000C12CD12C7601A8EEB3E00E94311E609366
:102D0000AF017093B0018093B1019093B201A7011C
:102D100096010E94311E6093AB017093AC018093C9
:102D2000AD019093AE018EE196E090930101809306
:102D30000001809169008C7F826080936900E89A2D
:102D400061E08DE00E947F1068EC70E080E090E030
:102D50000E94FC0F60E08DE00E947F1048EE242E60
:102D600043E0342E412C512C8FB7F89480903A02D6
:102D700090903B02A0903C02B0903D028FBF8091AA
:102D80003E02811509F47EC0F89460913F02709173
:102D90004002809141029091420210923E0278944A
:102DA0000E94A31D9B01AC0160E070E287EC95E4FA
:102DB0000E94021D7B018C0120E030E040EF52E4D4
:102DC0000E94E01D68E770E0181624F0B701C80102
:102DD0000E94741D6093B3017093B4016091AF01C0
:102DE0007091B0018091B1019091B2010E94A31D38
:102DF0002CE53FE842EE5FE30E94FC1C0E94741D3C
:102E00003B016C016093AF017092B0018093B101FE
:102E1000D092B2016091AB017091AC018091AD0193
:102E20009091AE010E94A31D2CE53FE842EE5FE3C6
:102E30000E94FC1C0E94741D7B018C016093AB01FD
:102E4000F092AC018093AD011093AE01B301C601C5
:102E5000A20191010E94091E2093A7013093A801AD
:102E60004093A9015093AA01B701C801A2019101A1
:102E70000E94091E2093A3013093A4014093A50151
:102E80005093A6018091430290914402A091450283
:102E9000B0914602A5019401281B390B4A0B5B0B2C
:102EA000DA01C901813D9740A105B10520F01092DA
:102EB000B4011092B30180919F019091A001A09163
:102EC000A101B091A201A5019401281B390B4A0B65
:102ED0005B0BDA01C901813E9349A440B10508F4B6
:102EE00044C0BE016B5F7F4F80E090E00E949E1364
:102EF000BE016F5F7F4F84E090E00E949E1340917F
:102F0000A7015091A8016091A9017091AA018D813A
:102F10009E81AF81B885481759076A077B0731F052
:102F200067EA71E080E090E00E94BB134091A3014A
:102F30005091A4016091A5017091A60189819A81A7
:102F4000AB81BC81481759076A077B0731F063EAF8
:102F500071E084E090E00E94BB1380929F01909208
:102F6000A001A092A101B092A20180919B01909139
:102F70009C01A0919D01B0919E01A5019401281B87
:102F8000390B4A0B5B0B293C31054105510508F40F
:102F900035C10E941013C12CD12C712CE12CF12CC5
:102FA00000E010E0C801877099277694892B59F4C6
:102FB000F80133E0F595E7953A95E1F7EC0DFD1D45
:102FC000E659FA4F749070FE08C021E030E0A70186
:102FD000B8018BE591E00E94B4080F5F1F4F0038E5
:102FE000110501F73FEFE31AF30A40E1C40ED11CCB
:102FF00050E1E516F104A1F681E090E090936E01B6
:1030000080936D0190936C0180936B016091B3018B
:103010007091B40194E36A30710528F09AE0643647
:10302000710508F49EE180E0909367018093680148
:1030300094E39093690110926A0180E090E04AE085
:103040000E944013109275011092740181E08093E8
:103050006F0180937001A8E6B0E0B0936801A0937F
:103060006701E0E2F0E0F0936A01E093690188E42F
:1030700091E00E943013109268011092670128E3DA
:1030800030E030936A01209369016091A70170914B
:10309000A8018091A9019091AA014AE00E944013E1
:1030A0008DE491E00E9430134EE550E050936801AA
:1030B0004093670188E390E090936A0180936901EF
:1030C00081E591E00E9430136091A3017091A40109
:1030D0008091A5019091A6014AE00E944013809141
:1030E000780190917901009709F46EC240919001A6
:1030F0005091910160919201709193010E94570645
:1031000064E086E695E00E944E1280915F01909106
:1031100060018034910509F06EC260E28BE591E0B8
:103120000E94AB1160915F01615E8BE591E00E94AE
:10313000AB112091610130916201C901079697FDA1
:10314000079623E0959587952A95E1F720915F01F1
:1031500030916001829F7001839FF00C929FF00C70
:10316000112400917A0110917B01A0917801B09116
:103170007901E00EF11E109709F47CC280917C0168
:1031800091E057969C93579752968C9352975596E9
:103190001C92559756961C925697ED91FC9111975B
:1031A0000190F081E02D60E4CD010995CC24C39419
:1031B000D12C7724739480917801909179010E1528
:1031C0001F0509F021C20E9497118091780190910A
:1031D0007901009709F493C24091940150919501AF
:1031E00060919601709197010E94570680929B0111
:1031F00090929C01A0929D01B0929E0120E030E04F
:10320000232B09F4B1CD0E940000AECDB90160546A
:10321000710977FF02C06F5F7F4F75956795825583
:10322000910997FD019600E410E022E530E046EABE
:1032300052E0959587950E94301182E080937D0140
:10324000E0917801F0917901309709F47BC08CE32B
:1032500080937C01108A118A158A168A048CF58D58
:10326000E02D09958091830187FD1EC061E00E94D9
:10327000501061E0809183010E947F1061E070E056
:1032800080E090E00E94FC0F60E0809183010E944A
:103290007F106AE070E080E090E00E94FC0F61E047
:1032A000809183010E947F10809178019091790133
:1032B000009709F407C140919001509191016091EC
:1032C0009201709193010E94570664E082EC90E0B5
:1032D0000E944E126091610161508BE591E00E9465
:1032E000AB1164E08EEB90E00E944E1280917D0164
:1032F00060E1813009F064E18BE591E00E94AB115F
:1033000064E08AEB90E00E944E128FE8809398016F
:1033100080915F01909160018038910509F0E9C0CA
:1033200080916101909162018034910509F0F2C0B1
:1033300080917D01813009F03BC18FE98093980134
:1033400012E1E9C061E0809181010E94501061E0CA
:10335000809182010E94501080918101082E000C02
:10336000990BFC01E356F94FE491F0E0EE0FFF1FDB
:10337000EB57F94F259135913093890120938801BE
:10338000FC01E854F94FE491E0938E0180918201B1
:10339000082E000C990BFC01E356F94FE491F0E084
:1033A000EE0FFF1FEB57F94FA591B591B0938B012D
:1033B000A0938A01FC01E854F94FE491E0938F0156
:1033C0008C91E82BEC938091760190917701892B79
:1033D000B1F11FB7F89480915A01811129C0E7EA31
:1033E000F6E08491E2ECF6E09491E82FF0E0EE0F45
:1033F000FF1FEF56F94FA591B5918C91E92FE82366
:10340000E11104C061E08AE00E947F1061E08AE07F
:103410000E9450108CB580618CBD8CB580648CBDD1
:1034200061E08DE00E94501061E08BE00E9450103E
:1034300080915A018F5F80935A011FBF13CF61E0C3
:1034400080917F010E94501061E0809180010E9474
:10345000501080917F01082E000C990BFC01E3565F
:10346000F94FE491F0E0EE0FFF1FEB57F94F259174
:1034700035913093850120938401FC01E854F94F84
:10348000E491E0938C0180918001082E000C990B4F
:10349000FC01E356F94FE491F0E0EE0FFF1FEB570C
:1034A000F94FA591B591B0938701A0938601FC01D6
:1034B000E854F94FE491E0938D018C91E095E82375
:1034C000EC93D0CE8091760190917701892B31F0E9
:1034D0008091990190919A010E94960DE0918A0144
:1034E000F0918B01908180918F0180958923808359
:1034F000ECCE8036910509F04AC08091610190912F
:103500006201409739F480917D018130F1F580E1CD
:103510008093980112E06AED8BE591E00E94AB1177
:10352000612F8BE591E00E94AB1161E88BE591E0A2
:103530000E94AB11609198018BE591E00E94AB1164
:1035400069ED8BE591E00E94AB1180917D0162E213
:10355000813009F061EF8BE591E00E94AB1166E0EC
:1035600084EB90E00E944E12809178019091790155
:10357000009701F14091940150919501609196015D
:10358000709197010E94570672CB8FEAC1CF8034A9
:10359000910509F0BFCF8091610190916201809700
:1035A00009F0B8CF80917D01813011F480E1C6CE61
:1035B0008FECC4CEE0918A01F0918B0180819091D3
:1035C0008F01892B808353CB809176019091770175
:1035D000892B31F08091990190919A010E94960D6A
:1035E000E0918A01F0918B01908180918F0180950B
:1035F0008923808385CD60E08BE591E00E94AB114B
:1036000060915F01615091CDA0E2CA16D10401F52D
:103610000E949711A0917801B091790180917C016D
:1036200057967C92579752968C93529755961C9228
:10363000559756961C925697ED91FC9111970190D3
:10364000F081E02D60E4CD010995CC24C394D12C08
:103650008091780190917901DC01ED91FC910190CC
:10366000F081E02DD8016D918D010995BFEFCB1A46
:10367000DB0AA1CDE0918801F091890180819091D0
:103680008E01892B80830E151F0509F49ECDF8014C
:1036900081918F012091760130917701232B19F0D0
:1036A0000E949011F0CF28E030E040E8E0918401E2
:1036B000F091850190918C01582F54235115D9F028
:1036C0005081952B9083E0918601F0918701908144
:1036D00050918D01952B9083E0918601F0918701A7
:1036E000508190918D01909595239083469521501E
:1036F0003040E1F6C8CF508190959523E3CFE0911B
:103700008A01F0918B01808190918F01892B8083B8
:103710006DCDCF93DF93CAE0D2E01B821A8288EE90
:1037200093E0A0E0B0E08C839D83AE83BF838EE006
:1037300091E09983888380E290E09D878C870E9446
:103740004B1E9F878E87188A198A1A8A80E290E01A
:103750000E944B1E9C8B8B8B1D8A1E8A1F8A8CEDB0
:1037600090E19D8F8C8F8AEF90E19F8F8E8F8CE1FF
:1037700097E099A388A380E297E09BA38AA383E3C1
:1037800097E09DA38CA384E797E09FA38EA382EC90
:1037900097E099A788A789EE97E09BA78AA781EF72
:1037A00097E09DA78CA78BEF97E09FA78EA785EE4C
:1037B00096E09093BE018093BD0180E197E09093E5
:1037C000BB018093BA01EBE5F1E01382128220E89D
:1037D00030E03583248380E490E0978386833187CB
:1037E000208793878287168A158614861786168601
:1037F00081E0858B848B2FEF3FEF338B228B318BD6
:10380000208B878B108E128E118E80E291E0918337
:103810008083148E138ED68FC58F10A2178E8FEFD4
:1038200084A385A386A387A380A780E89AE1A6E066
:10383000B0E085AB96ABA7ABB0AF80EA96E8A1E06D
:10384000B0E081AF92AFA3AFB4AF80E586AF17AE63
:10385000DF91CF91089580917A0190917B0100973B
:1038600011F00E94E11E80911802909119020097B8
:1038700011F00E94E11E80911D0290911E0200979E
:1038800011F00C94E11E089557FD9058440F551FF8
:1038900059F05F3F71F04795880F97FB991F61F0D2
:1038A0009F3F79F087950895121613061406551F49
:1038B000F2CF4695F1DF08C0161617061806991FB5
:1038C000F1CF869571056105089408950E94D51C75
:1038D00038F00E94DC1C20F039F49F3F19F426F4E4
:1038E0000C94D21C0EF4E095E7FB0C94CC1CE92F51
:1038F0000E94441C58F3BA176207730784079507A0
:1039000020F079F4A6F50C94F41C0EF4E0950B2E3F
:10391000BA2FA02D0B01B90190010C01CA01A00121
:103920001124FF27591B99F0593F50F4503E68F17C
:103930001A16F040A22F232F342F4427585FF3CFBD
:10394000469537952795A795F0405395C9F77EF48E
:103950001F16BA0B620B730B840BBAF09150A1F0D7
:10396000FF0FBB1F661F771F881FC2F70EC0BA0F5D
:10397000621F731F841F48F4879577956795B795E5
:10398000F7959E3F08F0B0CF9395880F08F09927E0
:10399000EE0F97958795089597F99F6780E870E0F7
:1039A00060E008959FEF80EC089500240A941616B5
:1039B000170618060906089500240A94121613061D
:1039C000140605060895092E0394000C11F48823AB
:1039D00052F0BB0F40F4BF2B11F460FF04C06F5FC7
:1039E0007F4F8F4F9F4F0895E894BB276627772717
:1039F000CB0197F908955058BB27AA270E94771C3E
:103A00000C94E31C0E94161D0C94E31C0E94DC1C09
:103A100058F00E94D51C40F029F45F3F29F00C9427
:103A2000CC1C51110C94F51C0C94D21C0E94441C0B
:103A300068F39923B1F3552391F3951B550BBB27DD
:103A4000AA2762177307840738F09F5F5F4F220F22
:103A5000331F441FAA1FA9F335D00E2E3AF0E0E819
:103A600032D091505040E695001CCAF72BD0FE2F63
:103A700029D0660F771F881FBB1F261737074807F7
:103A8000AB07B0E809F0BB0B802DBF01FF279358AF
:103A90005F4F3AF09E3F510578F00C94CC1C0C948B
:103AA000F51C5F3FE4F3983ED4F3869577956795D0
:103AB000B795F7959F5FC9F7880F911D96958795E4
:103AC00097F90895E1E0660F771F881FBB1F621703
:103AD00073078407BA0720F0621B730B840BBA0BC1
:103AE000EE1F88F7E09508950E944C1C88F09F57C0
:103AF00098F0B92F9927B751B0F0E1F0660F771F12
:103B0000881F991F1AF0BA95C9F714C0B13091F007
:103B10000E94F41CB1E008950C94F41C672F782FD8
:103B20008827B85F39F0B93FCCF3869577956795CC
:103B3000B395D9F73EF490958095709561957F4F38
:103B40008F4F9F4F0895E89409C097FB3EF49095DE
:103B50008095709561957F4F8F4F9F4F9923A9F066
:103B6000F92F96E9BB279395F695879577956795F5
:103B7000B795F111F8CFFAF4BB0F11F460FF1BC039
:103B80006F5F7F4F8F4F9F4F16C0882311F096E9CC
:103B900011C0772321F09EE8872F762F05C066237A
:103BA00071F096E8862F70E060E02AF09A95660F33
:103BB000771F881FDAF7880F9695879597F90895EC
:103BC0000E94E51D08F48FEF0895990F0008550F26
:103BD000AA0BE0E8FEEF16161706E807F907C0F093
:103BE00012161306E407F50798F0621B730B840B9B
:103BF000950B39F40A2661F0232B242B252B21F475
:103C000008950A2609F4A140A6958FEF811D811D14
:103C10000895A1E21A2EAA1BBB1BFD010DC0AA1F0D
:103C2000BB1FEE1FFF1FA217B307E407F50720F025
:103C3000A21BB30BE40BF50B661F771F881F991FA0
:103C40001A9469F760957095809590959B01AC01E9
:103C5000BD01CF010895EE0FFF1F0590F491E02DF7
:103C600009940E943C1EA59F900DB49F900DA49FA7
:103C7000800D911D11240895A29FB001B39FC00132
:103C8000A39F700D811D1124911DB29F700D811D88
:103C90001124911D08950F931F93CF93DF939C01DF
:103CA000029710F422E030E0E0914702F0914802E0
:103CB00080E090E0A0E0B0E0309791F4009709F444
:103CC00048C0821B930B84309105D0F58A819B817B
:103CD0006115710581F1FB0193838283FE0111C09F
:103CE000408151810281138142175307D8F0421756
:103CF000530799F4109761F012960C93129713964C
:103D00001C933296CF01DF91CF911F910F910895AF
:103D10000093470210934802F4CF009751F04817E0
:103D2000590738F0AC01DB01CA01BD01DF01F80120
:103D3000C3CFEF01F9CF9093480280934702CECFD3
:103D4000FE01E80FF91F219331930297998388832D
:103D5000D9CF4091490250914A024115510541F491
:103D6000409106015091070150934A024093490245
:103D70008091040190910501009741F48DB79EB7A1
:103D80006091080170910901861B970B481759072C
:103D900008F0B8CF841B950B8217930708F4B2CFB5
:103DA000B9016E5F7F4F8617970708F4ABCF640F9A
:103DB000751F70934A0260934902FA01219331936F
:103DC000A1CFCF93DF939C010097E9F0FC013297DC
:103DD00013821282C0914702D0914802DE0180E036
:103DE00090E02097A1F480819181280F391F809164
:103DF000490290914A028217930709F068C0F09334
:103E00004A02E0934902DF91CF910895DA01AE179B
:103E1000BF0708F042C012964D915C911397CD01F7
:103E20004115510599F7DC011396FC93EE93129717
:103E30004D915D919D01240F351FE217F30781F429
:103E4000208131812E5F3F4F240F351FDC011196F9
:103E50003C932E932281338113963C932E93129799
:103E6000E0E0F0E08A819B810097B1F5DE018D9161
:103E70009D918A0F9B1F2091490230914A02281779
:103E8000390709F6309759F5109248021092470207
:103E9000D0934A02C0934902B6CFB383A283408134
:103EA0005181240F351FA217B30771F44E5F5F4F86
:103EB0002D913C911197240F351F31832083129649
:103EC0002D913C9133832283009709F0ACCFF0937E
:103ED0004802E093470297CFFE01EC01C3CF138263
:103EE0001282D6CFDC0101C06D9341505040E0F703
:103EF0000895F999FECF92BD81BDF89A992780B5B2
:103F00000895262FF999FECF1FBA92BD81BD20BD1D
:103F10000FB6F894FA9AF99A0FBE0196089515E033
:103F2000C3EFD5E004C0FE010E942B1E2196C43FC2
:103F3000D107C9F7F894FFCFD310D7109A10B1105A
:103F40009F109F10B510BB10BF10C5109F10C91057
:023F5000CF1090
:103F5200D60F000000004B022000000000005E06A9
:103F62008E065406E406BD06C306D4060000000011
:103F7200B20C0711540601089A0DE406B408D308DE
:103F8200BB08C7080208E406830D13126B0FA10FCA
:103F920055099E09BB09330A6B6D2F6800206B6DB2
:043FA20000543A008D
:00000001FF
